{
	"123.sol": {
		"CoinFlip": {
			"abi": [
				{
					"inputs": [],
					"stateMutability": "nonpayable",
					"type": "constructor"
				},
				{
					"inputs": [],
					"name": "consecutiveWins",
					"outputs": [
						{
							"internalType": "uint256",
							"name": "",
							"type": "uint256"
						}
					],
					"stateMutability": "view",
					"type": "function"
				},
				{
					"inputs": [
						{
							"internalType": "bool",
							"name": "_guess",
							"type": "bool"
						}
					],
					"name": "flip",
					"outputs": [
						{
							"internalType": "bool",
							"name": "",
							"type": "bool"
						}
					],
					"stateMutability": "nonpayable",
					"type": "function"
				}
			],
			"devdoc": {
				"kind": "dev",
				"methods": {},
				"version": 1
			},
			"evm": {
				"assembly": "    /* \"123.sol\":57:712  contract CoinFlip {... */\n  mstore(0x40, 0x80)\n    /* \"123.sol\":151:228  57896044618658097711785492504343953926634992332820282019728792003956564819968 */\n  0x8000000000000000000000000000000000000000000000000000000000000000\n    /* \"123.sol\":134:228  uint256 FACTOR = 57896044618658097711785492504343953926634992332820282019728792003956564819968 */\n  0x02\n  sstore\n    /* \"123.sol\":233:277  constructor() {... */\n  callvalue\n  dup1\n  iszero\n  tag_1\n  jumpi\n  0x00\n  dup1\n  revert\ntag_1:\n  pop\n    /* \"123.sol\":271:272  0 */\n  0x00\n    /* \"123.sol\":253:268  consecutiveWins */\n  dup1\n    /* \"123.sol\":253:272  consecutiveWins = 0 */\n  dup2\n  swap1\n  sstore\n  pop\n    /* \"123.sol\":57:712  contract CoinFlip {... */\n  dataSize(sub_0)\n  dup1\n  dataOffset(sub_0)\n  0x00\n  codecopy\n  0x00\n  return\nstop\n\nsub_0: assembly {\n        /* \"123.sol\":57:712  contract CoinFlip {... */\n      mstore(0x40, 0x80)\n      callvalue\n      dup1\n      iszero\n      tag_1\n      jumpi\n      0x00\n      dup1\n      revert\n    tag_1:\n      pop\n      jumpi(tag_2, lt(calldatasize, 0x04))\n      shr(0xe0, calldataload(0x00))\n      dup1\n      0x1d263f67\n      eq\n      tag_3\n      jumpi\n      dup1\n      0xe6f334d7\n      eq\n      tag_4\n      jumpi\n    tag_2:\n      0x00\n      dup1\n      revert\n        /* \"123.sol\":281:710  function flip(bool _guess) public returns (bool) {... */\n    tag_3:\n      tag_5\n      0x04\n      dup1\n      calldatasize\n      sub\n      dup2\n      add\n      swap1\n      tag_6\n      swap2\n      swap1\n      tag_7\n      jump\t// in\n    tag_6:\n      tag_8\n      jump\t// in\n    tag_5:\n      mload(0x40)\n      tag_9\n      swap2\n      swap1\n      tag_10\n      jump\t// in\n    tag_9:\n      mload(0x40)\n      dup1\n      swap2\n      sub\n      swap1\n      return\n        /* \"123.sol\":80:110  uint256 public consecutiveWins */\n    tag_4:\n      tag_11\n      tag_12\n      jump\t// in\n    tag_11:\n      mload(0x40)\n      tag_13\n      swap2\n      swap1\n      tag_14\n      jump\t// in\n    tag_13:\n      mload(0x40)\n      dup1\n      swap2\n      sub\n      swap1\n      return\n        /* \"123.sol\":281:710  function flip(bool _guess) public returns (bool) {... */\n    tag_8:\n        /* \"123.sol\":324:328  bool */\n      0x00\n        /* \"123.sol\":336:354  uint256 blockValue */\n      dup1\n        /* \"123.sol\":390:391  1 */\n      0x01\n        /* \"123.sol\":375:387  block.number */\n      number\n        /* \"123.sol\":375:391  block.number - 1 */\n      tag_16\n      swap2\n      swap1\n      tag_17\n      jump\t// in\n    tag_16:\n        /* \"123.sol\":365:392  blockhash(block.number - 1) */\n      blockhash\n        /* \"123.sol\":357:393  uint256(blockhash(block.number - 1)) */\n      0x00\n      shr\n        /* \"123.sol\":336:393  uint256 blockValue = uint256(blockhash(block.number - 1)) */\n      swap1\n      pop\n        /* \"123.sol\":416:426  blockValue */\n      dup1\n        /* \"123.sol\":404:412  lastHash */\n      sload(0x01)\n        /* \"123.sol\":404:426  lastHash == blockValue */\n      sub\n        /* \"123.sol\":400:451  if (lastHash == blockValue) {... */\n      tag_18\n      jumpi\n        /* \"123.sol\":436:444  revert() */\n      0x00\n      dup1\n      revert\n        /* \"123.sol\":400:451  if (lastHash == blockValue) {... */\n    tag_18:\n        /* \"123.sol\":468:478  blockValue */\n      dup1\n        /* \"123.sol\":457:465  lastHash */\n      0x01\n        /* \"123.sol\":457:478  lastHash = blockValue */\n      dup2\n      swap1\n      sstore\n      pop\n        /* \"123.sol\":484:500  uint256 coinFlip */\n      0x00\n        /* \"123.sol\":516:522  FACTOR */\n      sload(0x02)\n        /* \"123.sol\":503:513  blockValue */\n      dup3\n        /* \"123.sol\":503:522  blockValue / FACTOR */\n      tag_19\n      swap2\n      swap1\n      tag_20\n      jump\t// in\n    tag_19:\n        /* \"123.sol\":484:522  uint256 coinFlip = blockValue / FACTOR */\n      swap1\n      pop\n        /* \"123.sol\":528:537  bool side */\n      0x00\n        /* \"123.sol\":552:553  1 */\n      0x01\n        /* \"123.sol\":540:548  coinFlip */\n      dup3\n        /* \"123.sol\":540:553  coinFlip == 1 */\n      eq\n        /* \"123.sol\":540:568  coinFlip == 1 ? true : false */\n      tag_21\n      jumpi\n        /* \"123.sol\":563:568  false */\n      0x00\n        /* \"123.sol\":540:568  coinFlip == 1 ? true : false */\n      jump(tag_22)\n    tag_21:\n        /* \"123.sol\":556:560  true */\n      0x01\n        /* \"123.sol\":540:568  coinFlip == 1 ? true : false */\n    tag_22:\n        /* \"123.sol\":528:568  bool side = coinFlip == 1 ? true : false */\n      swap1\n      pop\n        /* \"123.sol\":587:593  _guess */\n      dup5\n        /* \"123.sol\":579:593  side == _guess */\n      iszero\n      iszero\n        /* \"123.sol\":579:583  side */\n      dup2\n        /* \"123.sol\":579:593  side == _guess */\n      iszero\n      iszero\n      sub\n        /* \"123.sol\":575:706  if (side == _guess) {... */\n      tag_23\n      jumpi\n        /* \"123.sol\":603:618  consecutiveWins */\n      0x00\n      dup1\n        /* \"123.sol\":603:620  consecutiveWins++ */\n      dup2\n      sload\n      dup1\n      swap3\n      swap2\n      swap1\n      tag_24\n      swap1\n      tag_25\n      jump\t// in\n    tag_24:\n      swap2\n      swap1\n      pop\n      sstore\n      pop\n        /* \"123.sol\":635:639  true */\n      0x01\n        /* \"123.sol\":628:639  return true */\n      swap4\n      pop\n      pop\n      pop\n      pop\n      jump(tag_15)\n        /* \"123.sol\":575:706  if (side == _guess) {... */\n    tag_23:\n        /* \"123.sol\":678:679  0 */\n      0x00\n        /* \"123.sol\":660:675  consecutiveWins */\n      dup1\n        /* \"123.sol\":660:679  consecutiveWins = 0 */\n      dup2\n      swap1\n      sstore\n      pop\n        /* \"123.sol\":694:699  false */\n      0x00\n        /* \"123.sol\":687:699  return false */\n      swap4\n      pop\n      pop\n      pop\n      pop\n        /* \"123.sol\":281:710  function flip(bool _guess) public returns (bool) {... */\n    tag_15:\n      swap2\n      swap1\n      pop\n      jump\t// out\n        /* \"123.sol\":80:110  uint256 public consecutiveWins */\n    tag_12:\n      sload(0x00)\n      dup2\n      jump\t// out\n        /* \"#utility.yul\":88:205   */\n    tag_28:\n        /* \"#utility.yul\":197:198   */\n      0x00\n        /* \"#utility.yul\":194:195   */\n      dup1\n        /* \"#utility.yul\":187:199   */\n      revert\n        /* \"#utility.yul\":334:424   */\n    tag_30:\n        /* \"#utility.yul\":368:375   */\n      0x00\n        /* \"#utility.yul\":411:416   */\n      dup2\n        /* \"#utility.yul\":404:417   */\n      iszero\n        /* \"#utility.yul\":397:418   */\n      iszero\n        /* \"#utility.yul\":386:418   */\n      swap1\n      pop\n        /* \"#utility.yul\":334:424   */\n      swap2\n      swap1\n      pop\n      jump\t// out\n        /* \"#utility.yul\":430:546   */\n    tag_31:\n        /* \"#utility.yul\":500:521   */\n      tag_44\n        /* \"#utility.yul\":515:520   */\n      dup2\n        /* \"#utility.yul\":500:521   */\n      tag_30\n      jump\t// in\n    tag_44:\n        /* \"#utility.yul\":493:498   */\n      dup2\n        /* \"#utility.yul\":490:522   */\n      eq\n        /* \"#utility.yul\":480:540   */\n      tag_45\n      jumpi\n        /* \"#utility.yul\":536:537   */\n      0x00\n        /* \"#utility.yul\":533:534   */\n      dup1\n        /* \"#utility.yul\":526:538   */\n      revert\n        /* \"#utility.yul\":480:540   */\n    tag_45:\n        /* \"#utility.yul\":430:546   */\n      pop\n      jump\t// out\n        /* \"#utility.yul\":552:685   */\n    tag_32:\n        /* \"#utility.yul\":595:600   */\n      0x00\n        /* \"#utility.yul\":633:639   */\n      dup2\n        /* \"#utility.yul\":620:640   */\n      calldataload\n        /* \"#utility.yul\":611:640   */\n      swap1\n      pop\n        /* \"#utility.yul\":649:679   */\n      tag_47\n        /* \"#utility.yul\":673:678   */\n      dup2\n        /* \"#utility.yul\":649:679   */\n      tag_31\n      jump\t// in\n    tag_47:\n        /* \"#utility.yul\":552:685   */\n      swap3\n      swap2\n      pop\n      pop\n      jump\t// out\n        /* \"#utility.yul\":691:1014   */\n    tag_7:\n        /* \"#utility.yul\":747:753   */\n      0x00\n        /* \"#utility.yul\":796:798   */\n      0x20\n        /* \"#utility.yul\":784:793   */\n      dup3\n        /* \"#utility.yul\":775:782   */\n      dup5\n        /* \"#utility.yul\":771:794   */\n      sub\n        /* \"#utility.yul\":767:799   */\n      slt\n        /* \"#utility.yul\":764:883   */\n      iszero\n      tag_49\n      jumpi\n        /* \"#utility.yul\":802:881   */\n      tag_50\n      tag_28\n      jump\t// in\n    tag_50:\n        /* \"#utility.yul\":764:883   */\n    tag_49:\n        /* \"#utility.yul\":922:923   */\n      0x00\n        /* \"#utility.yul\":947:997   */\n      tag_51\n        /* \"#utility.yul\":989:996   */\n      dup5\n        /* \"#utility.yul\":980:986   */\n      dup3\n        /* \"#utility.yul\":969:978   */\n      dup6\n        /* \"#utility.yul\":965:987   */\n      add\n        /* \"#utility.yul\":947:997   */\n      tag_32\n      jump\t// in\n    tag_51:\n        /* \"#utility.yul\":937:997   */\n      swap2\n      pop\n        /* \"#utility.yul\":893:1007   */\n      pop\n        /* \"#utility.yul\":691:1014   */\n      swap3\n      swap2\n      pop\n      pop\n      jump\t// out\n        /* \"#utility.yul\":1020:1129   */\n    tag_33:\n        /* \"#utility.yul\":1101:1122   */\n      tag_53\n        /* \"#utility.yul\":1116:1121   */\n      dup2\n        /* \"#utility.yul\":1101:1122   */\n      tag_30\n      jump\t// in\n    tag_53:\n        /* \"#utility.yul\":1096:1099   */\n      dup3\n        /* \"#utility.yul\":1089:1123   */\n      mstore\n        /* \"#utility.yul\":1020:1129   */\n      pop\n      pop\n      jump\t// out\n        /* \"#utility.yul\":1135:1345   */\n    tag_10:\n        /* \"#utility.yul\":1222:1226   */\n      0x00\n        /* \"#utility.yul\":1260:1262   */\n      0x20\n        /* \"#utility.yul\":1249:1258   */\n      dup3\n        /* \"#utility.yul\":1245:1263   */\n      add\n        /* \"#utility.yul\":1237:1263   */\n      swap1\n      pop\n        /* \"#utility.yul\":1273:1338   */\n      tag_55\n        /* \"#utility.yul\":1335:1336   */\n      0x00\n        /* \"#utility.yul\":1324:1333   */\n      dup4\n        /* \"#utility.yul\":1320:1337   */\n      add\n        /* \"#utility.yul\":1311:1317   */\n      dup5\n        /* \"#utility.yul\":1273:1338   */\n      tag_33\n      jump\t// in\n    tag_55:\n        /* \"#utility.yul\":1135:1345   */\n      swap3\n      swap2\n      pop\n      pop\n      jump\t// out\n        /* \"#utility.yul\":1351:1428   */\n    tag_34:\n        /* \"#utility.yul\":1388:1395   */\n      0x00\n        /* \"#utility.yul\":1417:1422   */\n      dup2\n        /* \"#utility.yul\":1406:1422   */\n      swap1\n      pop\n        /* \"#utility.yul\":1351:1428   */\n      swap2\n      swap1\n      pop\n      jump\t// out\n        /* \"#utility.yul\":1434:1552   */\n    tag_35:\n        /* \"#utility.yul\":1521:1545   */\n      tag_58\n        /* \"#utility.yul\":1539:1544   */\n      dup2\n        /* \"#utility.yul\":1521:1545   */\n      tag_34\n      jump\t// in\n    tag_58:\n        /* \"#utility.yul\":1516:1519   */\n      dup3\n        /* \"#utility.yul\":1509:1546   */\n      mstore\n        /* \"#utility.yul\":1434:1552   */\n      pop\n      pop\n      jump\t// out\n        /* \"#utility.yul\":1558:1780   */\n    tag_14:\n        /* \"#utility.yul\":1651:1655   */\n      0x00\n        /* \"#utility.yul\":1689:1691   */\n      0x20\n        /* \"#utility.yul\":1678:1687   */\n      dup3\n        /* \"#utility.yul\":1674:1692   */\n      add\n        /* \"#utility.yul\":1666:1692   */\n      swap1\n      pop\n        /* \"#utility.yul\":1702:1773   */\n      tag_60\n        /* \"#utility.yul\":1770:1771   */\n      0x00\n        /* \"#utility.yul\":1759:1768   */\n      dup4\n        /* \"#utility.yul\":1755:1772   */\n      add\n        /* \"#utility.yul\":1746:1752   */\n      dup5\n        /* \"#utility.yul\":1702:1773   */\n      tag_35\n      jump\t// in\n    tag_60:\n        /* \"#utility.yul\":1558:1780   */\n      swap3\n      swap2\n      pop\n      pop\n      jump\t// out\n        /* \"#utility.yul\":1786:1966   */\n    tag_36:\n        /* \"#utility.yul\":1834:1911   */\n      0x4e487b7100000000000000000000000000000000000000000000000000000000\n        /* \"#utility.yul\":1831:1832   */\n      0x00\n        /* \"#utility.yul\":1824:1912   */\n      mstore\n        /* \"#utility.yul\":1931:1935   */\n      0x11\n        /* \"#utility.yul\":1928:1929   */\n      0x04\n        /* \"#utility.yul\":1921:1936   */\n      mstore\n        /* \"#utility.yul\":1955:1959   */\n      0x24\n        /* \"#utility.yul\":1952:1953   */\n      0x00\n        /* \"#utility.yul\":1945:1960   */\n      revert\n        /* \"#utility.yul\":1972:2166   */\n    tag_17:\n        /* \"#utility.yul\":2012:2016   */\n      0x00\n        /* \"#utility.yul\":2032:2052   */\n      tag_63\n        /* \"#utility.yul\":2050:2051   */\n      dup3\n        /* \"#utility.yul\":2032:2052   */\n      tag_34\n      jump\t// in\n    tag_63:\n        /* \"#utility.yul\":2027:2052   */\n      swap2\n      pop\n        /* \"#utility.yul\":2066:2086   */\n      tag_64\n        /* \"#utility.yul\":2084:2085   */\n      dup4\n        /* \"#utility.yul\":2066:2086   */\n      tag_34\n      jump\t// in\n    tag_64:\n        /* \"#utility.yul\":2061:2086   */\n      swap3\n      pop\n        /* \"#utility.yul\":2110:2111   */\n      dup3\n        /* \"#utility.yul\":2107:2108   */\n      dup3\n        /* \"#utility.yul\":2103:2112   */\n      sub\n        /* \"#utility.yul\":2095:2112   */\n      swap1\n      pop\n        /* \"#utility.yul\":2134:2135   */\n      dup2\n        /* \"#utility.yul\":2128:2132   */\n      dup2\n        /* \"#utility.yul\":2125:2136   */\n      gt\n        /* \"#utility.yul\":2122:2159   */\n      iszero\n      tag_65\n      jumpi\n        /* \"#utility.yul\":2139:2157   */\n      tag_66\n      tag_36\n      jump\t// in\n    tag_66:\n        /* \"#utility.yul\":2122:2159   */\n    tag_65:\n        /* \"#utility.yul\":1972:2166   */\n      swap3\n      swap2\n      pop\n      pop\n      jump\t// out\n        /* \"#utility.yul\":2172:2352   */\n    tag_37:\n        /* \"#utility.yul\":2220:2297   */\n      0x4e487b7100000000000000000000000000000000000000000000000000000000\n        /* \"#utility.yul\":2217:2218   */\n      0x00\n        /* \"#utility.yul\":2210:2298   */\n      mstore\n        /* \"#utility.yul\":2317:2321   */\n      0x12\n        /* \"#utility.yul\":2314:2315   */\n      0x04\n        /* \"#utility.yul\":2307:2322   */\n      mstore\n        /* \"#utility.yul\":2341:2345   */\n      0x24\n        /* \"#utility.yul\":2338:2339   */\n      0x00\n        /* \"#utility.yul\":2331:2346   */\n      revert\n        /* \"#utility.yul\":2358:2543   */\n    tag_20:\n        /* \"#utility.yul\":2398:2399   */\n      0x00\n        /* \"#utility.yul\":2415:2435   */\n      tag_69\n        /* \"#utility.yul\":2433:2434   */\n      dup3\n        /* \"#utility.yul\":2415:2435   */\n      tag_34\n      jump\t// in\n    tag_69:\n        /* \"#utility.yul\":2410:2435   */\n      swap2\n      pop\n        /* \"#utility.yul\":2449:2469   */\n      tag_70\n        /* \"#utility.yul\":2467:2468   */\n      dup4\n        /* \"#utility.yul\":2449:2469   */\n      tag_34\n      jump\t// in\n    tag_70:\n        /* \"#utility.yul\":2444:2469   */\n      swap3\n      pop\n        /* \"#utility.yul\":2488:2489   */\n      dup3\n        /* \"#utility.yul\":2478:2513   */\n      tag_71\n      jumpi\n        /* \"#utility.yul\":2493:2511   */\n      tag_72\n      tag_37\n      jump\t// in\n    tag_72:\n        /* \"#utility.yul\":2478:2513   */\n    tag_71:\n        /* \"#utility.yul\":2535:2536   */\n      dup3\n        /* \"#utility.yul\":2532:2533   */\n      dup3\n        /* \"#utility.yul\":2528:2537   */\n      div\n        /* \"#utility.yul\":2523:2537   */\n      swap1\n      pop\n        /* \"#utility.yul\":2358:2543   */\n      swap3\n      swap2\n      pop\n      pop\n      jump\t// out\n        /* \"#utility.yul\":2549:2782   */\n    tag_25:\n        /* \"#utility.yul\":2588:2591   */\n      0x00\n        /* \"#utility.yul\":2611:2635   */\n      tag_74\n        /* \"#utility.yul\":2629:2634   */\n      dup3\n        /* \"#utility.yul\":2611:2635   */\n      tag_34\n      jump\t// in\n    tag_74:\n        /* \"#utility.yul\":2602:2635   */\n      swap2\n      pop\n        /* \"#utility.yul\":2657:2723   */\n      0xffffffffffffffffffffffffffffffffffffffffffffffffffffffffffffffff\n        /* \"#utility.yul\":2650:2655   */\n      dup3\n        /* \"#utility.yul\":2647:2724   */\n      sub\n        /* \"#utility.yul\":2644:2747   */\n      tag_75\n      jumpi\n        /* \"#utility.yul\":2727:2745   */\n      tag_76\n      tag_36\n      jump\t// in\n    tag_76:\n        /* \"#utility.yul\":2644:2747   */\n    tag_75:\n        /* \"#utility.yul\":2774:2775   */\n      0x01\n        /* \"#utility.yul\":2767:2772   */\n      dup3\n        /* \"#utility.yul\":2763:2776   */\n      add\n        /* \"#utility.yul\":2756:2776   */\n      swap1\n      pop\n        /* \"#utility.yul\":2549:2782   */\n      swap2\n      swap1\n      pop\n      jump\t// out\n\n    auxdata: 0xa26469706673582212203f48d14e5b40d350c343a5d2f3598aacbab36536573955806c112524dba45e4d64736f6c63430008110033\n}\n",
				"bytecode": {
					"linkReferences": {},
					"object": "60806040527f800000000000000000000000000000000000000000000000000000000000000060025534801561003457600080fd5b506000808190555061032d8061004b6000396000f3fe608060405234801561001057600080fd5b50600436106100365760003560e01c80631d263f671461003b578063e6f334d71461006b575b600080fd5b61005560048036038101906100509190610161565b610089565b604051610062919061019d565b60405180910390f35b61007361011e565b60405161008091906101d1565b60405180910390f35b600080600143610099919061021b565b4060001c905080600154036100ad57600080fd5b806001819055506000600254826100c4919061027e565b90506000600182146100d75760006100da565b60015b90508415158115150361010a576000808154809291906100f9906102af565b919050555060019350505050610119565b60008081905550600093505050505b919050565b60005481565b600080fd5b60008115159050919050565b61013e81610129565b811461014957600080fd5b50565b60008135905061015b81610135565b92915050565b60006020828403121561017757610176610124565b5b60006101858482850161014c565b91505092915050565b61019781610129565b82525050565b60006020820190506101b2600083018461018e565b92915050565b6000819050919050565b6101cb816101b8565b82525050565b60006020820190506101e660008301846101c2565b92915050565b7f4e487b7100000000000000000000000000000000000000000000000000000000600052601160045260246000fd5b6000610226826101b8565b9150610231836101b8565b9250828203905081811115610249576102486101ec565b5b92915050565b7f4e487b7100000000000000000000000000000000000000000000000000000000600052601260045260246000fd5b6000610289826101b8565b9150610294836101b8565b9250826102a4576102a361024f565b5b828204905092915050565b60006102ba826101b8565b91507fffffffffffffffffffffffffffffffffffffffffffffffffffffffffffffffff82036102ec576102eb6101ec565b5b60018201905091905056fea26469706673582212203f48d14e5b40d350c343a5d2f3598aacbab36536573955806c112524dba45e4d64736f6c63430008110033",
					"opcodes": "PUSH1 0x80 PUSH1 0x40 MSTORE PUSH32 0x8000000000000000000000000000000000000000000000000000000000000000 PUSH1 0x2 SSTORE CALLVALUE DUP1 ISZERO PUSH2 0x34 JUMPI PUSH1 0x0 DUP1 REVERT JUMPDEST POP PUSH1 0x0 DUP1 DUP2 SWAP1 SSTORE POP PUSH2 0x32D DUP1 PUSH2 0x4B PUSH1 0x0 CODECOPY PUSH1 0x0 RETURN INVALID PUSH1 0x80 PUSH1 0x40 MSTORE CALLVALUE DUP1 ISZERO PUSH2 0x10 JUMPI PUSH1 0x0 DUP1 REVERT JUMPDEST POP PUSH1 0x4 CALLDATASIZE LT PUSH2 0x36 JUMPI PUSH1 0x0 CALLDATALOAD PUSH1 0xE0 SHR DUP1 PUSH4 0x1D263F67 EQ PUSH2 0x3B JUMPI DUP1 PUSH4 0xE6F334D7 EQ PUSH2 0x6B JUMPI JUMPDEST PUSH1 0x0 DUP1 REVERT JUMPDEST PUSH2 0x55 PUSH1 0x4 DUP1 CALLDATASIZE SUB DUP2 ADD SWAP1 PUSH2 0x50 SWAP2 SWAP1 PUSH2 0x161 JUMP JUMPDEST PUSH2 0x89 JUMP JUMPDEST PUSH1 0x40 MLOAD PUSH2 0x62 SWAP2 SWAP1 PUSH2 0x19D JUMP JUMPDEST PUSH1 0x40 MLOAD DUP1 SWAP2 SUB SWAP1 RETURN JUMPDEST PUSH2 0x73 PUSH2 0x11E JUMP JUMPDEST PUSH1 0x40 MLOAD PUSH2 0x80 SWAP2 SWAP1 PUSH2 0x1D1 JUMP JUMPDEST PUSH1 0x40 MLOAD DUP1 SWAP2 SUB SWAP1 RETURN JUMPDEST PUSH1 0x0 DUP1 PUSH1 0x1 NUMBER PUSH2 0x99 SWAP2 SWAP1 PUSH2 0x21B JUMP JUMPDEST BLOCKHASH PUSH1 0x0 SHR SWAP1 POP DUP1 PUSH1 0x1 SLOAD SUB PUSH2 0xAD JUMPI PUSH1 0x0 DUP1 REVERT JUMPDEST DUP1 PUSH1 0x1 DUP2 SWAP1 SSTORE POP PUSH1 0x0 PUSH1 0x2 SLOAD DUP3 PUSH2 0xC4 SWAP2 SWAP1 PUSH2 0x27E JUMP JUMPDEST SWAP1 POP PUSH1 0x0 PUSH1 0x1 DUP3 EQ PUSH2 0xD7 JUMPI PUSH1 0x0 PUSH2 0xDA JUMP JUMPDEST PUSH1 0x1 JUMPDEST SWAP1 POP DUP5 ISZERO ISZERO DUP2 ISZERO ISZERO SUB PUSH2 0x10A JUMPI PUSH1 0x0 DUP1 DUP2 SLOAD DUP1 SWAP3 SWAP2 SWAP1 PUSH2 0xF9 SWAP1 PUSH2 0x2AF JUMP JUMPDEST SWAP2 SWAP1 POP SSTORE POP PUSH1 0x1 SWAP4 POP POP POP POP PUSH2 0x119 JUMP JUMPDEST PUSH1 0x0 DUP1 DUP2 SWAP1 SSTORE POP PUSH1 0x0 SWAP4 POP POP POP POP JUMPDEST SWAP2 SWAP1 POP JUMP JUMPDEST PUSH1 0x0 SLOAD DUP2 JUMP JUMPDEST PUSH1 0x0 DUP1 REVERT JUMPDEST PUSH1 0x0 DUP2 ISZERO ISZERO SWAP1 POP SWAP2 SWAP1 POP JUMP JUMPDEST PUSH2 0x13E DUP2 PUSH2 0x129 JUMP JUMPDEST DUP2 EQ PUSH2 0x149 JUMPI PUSH1 0x0 DUP1 REVERT JUMPDEST POP JUMP JUMPDEST PUSH1 0x0 DUP2 CALLDATALOAD SWAP1 POP PUSH2 0x15B DUP2 PUSH2 0x135 JUMP JUMPDEST SWAP3 SWAP2 POP POP JUMP JUMPDEST PUSH1 0x0 PUSH1 0x20 DUP3 DUP5 SUB SLT ISZERO PUSH2 0x177 JUMPI PUSH2 0x176 PUSH2 0x124 JUMP JUMPDEST JUMPDEST PUSH1 0x0 PUSH2 0x185 DUP5 DUP3 DUP6 ADD PUSH2 0x14C JUMP JUMPDEST SWAP2 POP POP SWAP3 SWAP2 POP POP JUMP JUMPDEST PUSH2 0x197 DUP2 PUSH2 0x129 JUMP JUMPDEST DUP3 MSTORE POP POP JUMP JUMPDEST PUSH1 0x0 PUSH1 0x20 DUP3 ADD SWAP1 POP PUSH2 0x1B2 PUSH1 0x0 DUP4 ADD DUP5 PUSH2 0x18E JUMP JUMPDEST SWAP3 SWAP2 POP POP JUMP JUMPDEST PUSH1 0x0 DUP2 SWAP1 POP SWAP2 SWAP1 POP JUMP JUMPDEST PUSH2 0x1CB DUP2 PUSH2 0x1B8 JUMP JUMPDEST DUP3 MSTORE POP POP JUMP JUMPDEST PUSH1 0x0 PUSH1 0x20 DUP3 ADD SWAP1 POP PUSH2 0x1E6 PUSH1 0x0 DUP4 ADD DUP5 PUSH2 0x1C2 JUMP JUMPDEST SWAP3 SWAP2 POP POP JUMP JUMPDEST PUSH32 0x4E487B7100000000000000000000000000000000000000000000000000000000 PUSH1 0x0 MSTORE PUSH1 0x11 PUSH1 0x4 MSTORE PUSH1 0x24 PUSH1 0x0 REVERT JUMPDEST PUSH1 0x0 PUSH2 0x226 DUP3 PUSH2 0x1B8 JUMP JUMPDEST SWAP2 POP PUSH2 0x231 DUP4 PUSH2 0x1B8 JUMP JUMPDEST SWAP3 POP DUP3 DUP3 SUB SWAP1 POP DUP2 DUP2 GT ISZERO PUSH2 0x249 JUMPI PUSH2 0x248 PUSH2 0x1EC JUMP JUMPDEST JUMPDEST SWAP3 SWAP2 POP POP JUMP JUMPDEST PUSH32 0x4E487B7100000000000000000000000000000000000000000000000000000000 PUSH1 0x0 MSTORE PUSH1 0x12 PUSH1 0x4 MSTORE PUSH1 0x24 PUSH1 0x0 REVERT JUMPDEST PUSH1 0x0 PUSH2 0x289 DUP3 PUSH2 0x1B8 JUMP JUMPDEST SWAP2 POP PUSH2 0x294 DUP4 PUSH2 0x1B8 JUMP JUMPDEST SWAP3 POP DUP3 PUSH2 0x2A4 JUMPI PUSH2 0x2A3 PUSH2 0x24F JUMP JUMPDEST JUMPDEST DUP3 DUP3 DIV SWAP1 POP SWAP3 SWAP2 POP POP JUMP JUMPDEST PUSH1 0x0 PUSH2 0x2BA DUP3 PUSH2 0x1B8 JUMP JUMPDEST SWAP2 POP PUSH32 0xFFFFFFFFFFFFFFFFFFFFFFFFFFFFFFFFFFFFFFFFFFFFFFFFFFFFFFFFFFFFFFFF DUP3 SUB PUSH2 0x2EC JUMPI PUSH2 0x2EB PUSH2 0x1EC JUMP JUMPDEST JUMPDEST PUSH1 0x1 DUP3 ADD SWAP1 POP SWAP2 SWAP1 POP JUMP INVALID LOG2 PUSH5 0x6970667358 0x22 SLT KECCAK256 EXTCODEHASH BASEFEE 0xD1 0x4E JUMPDEST BLOCKHASH 0xD3 POP 0xC3 NUMBER 0xA5 0xD2 RETURN MSIZE DUP11 0xAC 0xBA 0xB3 PUSH6 0x36573955806C GT 0x25 0x24 0xDB LOG4 0x5E 0x4D PUSH5 0x736F6C6343 STOP ADDMOD GT STOP CALLER "
				},
				"gasEstimates": {
					"creation": {
						"codeDepositCost": "162600",
						"executionCost": "27328",
						"totalCost": "189928"
					},
					"external": {
						"consecutiveWins()": "2429",
						"flip(bool)": "infinite"
					}
				},
				"methodIdentifiers": {
					"consecutiveWins()": "e6f334d7",
					"flip(bool)": "1d263f67"
				}
			},
			"storageLayout": {
				"storage": [
					{
						"astId": 3,
						"contract": "123.sol:CoinFlip",
						"label": "consecutiveWins",
						"offset": 0,
						"slot": "0",
						"type": "t_uint256"
					},
					{
						"astId": 5,
						"contract": "123.sol:CoinFlip",
						"label": "lastHash",
						"offset": 0,
						"slot": "1",
						"type": "t_uint256"
					},
					{
						"astId": 8,
						"contract": "123.sol:CoinFlip",
						"label": "FACTOR",
						"offset": 0,
						"slot": "2",
						"type": "t_uint256"
					}
				],
				"types": {
					"t_uint256": {
						"encoding": "inplace",
						"label": "uint256",
						"numberOfBytes": "32"
					}
				}
			},
			"userdoc": {
				"kind": "user",
				"methods": {},
				"version": 1
			}
		}
	}
}