{
	"data": {
		"bytecode": {
			"linkReferences": {},
			"object": "60806040526101c5806100136000396000f3fe6080604052600436106100375760003560e01c806279efb01461004357806326121ff01461005a578063ea98847b146100645761003e565b3661003e57005b600080fd5b34801561004f57600080fd5b5061005861007b565b005b6100626100c5565b005b34801561007057600080fd5b506100796100c7565b005b60003390508073ffffffffffffffffffffffffffffffffffffffff166108fc6001476100a7919061015b565b9081150290604051600060405180830381858888f193505050505050565b565b60003390508073ffffffffffffffffffffffffffffffffffffffff166108fc6001476100f3919061015b565b9081150290604051600060405180830381858888f1935050505015801561011e573d6000803e3d6000fd5b5050565b6000819050919050565b7f4e487b7100000000000000000000000000000000000000000000000000000000600052601160045260246000fd5b600061016682610122565b915061017183610122565b92508282019050808211156101895761018861012c565b5b9291505056fea264697066735822122064c55a4e3b72401b03990f9d0cb3839d33b1b47c3ee849f380530c0973c6143564736f6c63430008110033",
			"opcodes": "PUSH1 0x80 PUSH1 0x40 MSTORE PUSH2 0x1C5 DUP1 PUSH2 0x13 PUSH1 0x0 CODECOPY PUSH1 0x0 RETURN INVALID PUSH1 0x80 PUSH1 0x40 MSTORE PUSH1 0x4 CALLDATASIZE LT PUSH2 0x37 JUMPI PUSH1 0x0 CALLDATALOAD PUSH1 0xE0 SHR DUP1 PUSH3 0x79EFB0 EQ PUSH2 0x43 JUMPI DUP1 PUSH4 0x26121FF0 EQ PUSH2 0x5A JUMPI DUP1 PUSH4 0xEA98847B EQ PUSH2 0x64 JUMPI PUSH2 0x3E JUMP JUMPDEST CALLDATASIZE PUSH2 0x3E JUMPI STOP JUMPDEST PUSH1 0x0 DUP1 REVERT JUMPDEST CALLVALUE DUP1 ISZERO PUSH2 0x4F JUMPI PUSH1 0x0 DUP1 REVERT JUMPDEST POP PUSH2 0x58 PUSH2 0x7B JUMP JUMPDEST STOP JUMPDEST PUSH2 0x62 PUSH2 0xC5 JUMP JUMPDEST STOP JUMPDEST CALLVALUE DUP1 ISZERO PUSH2 0x70 JUMPI PUSH1 0x0 DUP1 REVERT JUMPDEST POP PUSH2 0x79 PUSH2 0xC7 JUMP JUMPDEST STOP JUMPDEST PUSH1 0x0 CALLER SWAP1 POP DUP1 PUSH20 0xFFFFFFFFFFFFFFFFFFFFFFFFFFFFFFFFFFFFFFFF AND PUSH2 0x8FC PUSH1 0x1 SELFBALANCE PUSH2 0xA7 SWAP2 SWAP1 PUSH2 0x15B JUMP JUMPDEST SWAP1 DUP2 ISZERO MUL SWAP1 PUSH1 0x40 MLOAD PUSH1 0x0 PUSH1 0x40 MLOAD DUP1 DUP4 SUB DUP2 DUP6 DUP9 DUP9 CALL SWAP4 POP POP POP POP POP POP JUMP JUMPDEST JUMP JUMPDEST PUSH1 0x0 CALLER SWAP1 POP DUP1 PUSH20 0xFFFFFFFFFFFFFFFFFFFFFFFFFFFFFFFFFFFFFFFF AND PUSH2 0x8FC PUSH1 0x1 SELFBALANCE PUSH2 0xF3 SWAP2 SWAP1 PUSH2 0x15B JUMP JUMPDEST SWAP1 DUP2 ISZERO MUL SWAP1 PUSH1 0x40 MLOAD PUSH1 0x0 PUSH1 0x40 MLOAD DUP1 DUP4 SUB DUP2 DUP6 DUP9 DUP9 CALL SWAP4 POP POP POP POP ISZERO DUP1 ISZERO PUSH2 0x11E JUMPI RETURNDATASIZE PUSH1 0x0 DUP1 RETURNDATACOPY RETURNDATASIZE PUSH1 0x0 REVERT JUMPDEST POP POP JUMP JUMPDEST PUSH1 0x0 DUP2 SWAP1 POP SWAP2 SWAP1 POP JUMP JUMPDEST PUSH32 0x4E487B7100000000000000000000000000000000000000000000000000000000 PUSH1 0x0 MSTORE PUSH1 0x11 PUSH1 0x4 MSTORE PUSH1 0x24 PUSH1 0x0 REVERT JUMPDEST PUSH1 0x0 PUSH2 0x166 DUP3 PUSH2 0x122 JUMP JUMPDEST SWAP2 POP PUSH2 0x171 DUP4 PUSH2 0x122 JUMP JUMPDEST SWAP3 POP DUP3 DUP3 ADD SWAP1 POP DUP1 DUP3 GT ISZERO PUSH2 0x189 JUMPI PUSH2 0x188 PUSH2 0x12C JUMP JUMPDEST JUMPDEST SWAP3 SWAP2 POP POP JUMP INVALID LOG2 PUSH5 0x6970667358 0x22 SLT KECCAK256 PUSH5 0xC55A4E3B72 BLOCKHASH SHL SUB SWAP10 0xF SWAP14 0xC 0xB3 DUP4 SWAP14 CALLER 0xB1 0xB4 PUSH29 0x3EE849F380530C0973C6143564736F6C63430008110033000000000000 "
		},
		"gasEstimates": {
			"creation": {
				"codeDepositCost": "90600",
				"executionCost": "117",
				"totalCost": "90717"
			},
			"external": {
				"f()": "120",
				"withdraw1()": "infinite",
				"withdraw2()": "infinite"
			}
		},
		"methodIdentifiers": {
			"f()": "26121ff0",
			"withdraw1()": "0079efb0",
			"withdraw2()": "ea98847b"
		}
	},
	"abi": [
		{
			"inputs": [],
			"stateMutability": "payable",
			"type": "constructor"
		},
		{
			"inputs": [],
			"name": "f",
			"outputs": [],
			"stateMutability": "payable",
			"type": "function"
		},
		{
			"inputs": [],
			"name": "withdraw1",
			"outputs": [],
			"stateMutability": "nonpayable",
			"type": "function"
		},
		{
			"inputs": [],
			"name": "withdraw2",
			"outputs": [],
			"stateMutability": "nonpayable",
			"type": "function"
		},
		{
			"stateMutability": "payable",
			"type": "receive"
		}
	]
}