{
	"data": {
		"bytecode": {
			"linkReferences": {},
			"object": "60806040523480156200001157600080fd5b506040516200096c3803806200096c833981810160405281019062000037919062000269565b8260008190555081600181905550806002908162000056919062000525565b505050506200060c565b6000604051905090565b600080fd5b600080fd5b6000819050919050565b620000898162000074565b81146200009557600080fd5b50565b600081519050620000a9816200007e565b92915050565b6000819050919050565b620000c481620000af565b8114620000d057600080fd5b50565b600081519050620000e481620000b9565b92915050565b600080fd5b600080fd5b6000601f19601f8301169050919050565b7f4e487b7100000000000000000000000000000000000000000000000000000000600052604160045260246000fd5b6200013f82620000f4565b810181811067ffffffffffffffff8211171562000161576200016062000105565b5b80604052505050565b60006200017662000060565b905062000184828262000134565b919050565b600067ffffffffffffffff821115620001a757620001a662000105565b5b620001b282620000f4565b9050602081019050919050565b60005b83811015620001df578082015181840152602081019050620001c2565b60008484015250505050565b600062000202620001fc8462000189565b6200016a565b905082815260208101848484011115620002215762000220620000ef565b5b6200022e848285620001bf565b509392505050565b600082601f8301126200024e576200024d620000ea565b5b815162000260848260208601620001eb565b91505092915050565b6000806000606084860312156200028557620002846200006a565b5b6000620002958682870162000098565b9350506020620002a886828701620000d3565b925050604084015167ffffffffffffffff811115620002cc57620002cb6200006f565b5b620002da8682870162000236565b9150509250925092565b600081519050919050565b7f4e487b7100000000000000000000000000000000000000000000000000000000600052602260045260246000fd5b600060028204905060018216806200033757607f821691505b6020821081036200034d576200034c620002ef565b5b50919050565b60008190508160005260206000209050919050565b60006020601f8301049050919050565b600082821b905092915050565b600060088302620003b77fffffffffffffffffffffffffffffffffffffffffffffffffffffffffffffffff8262000378565b620003c3868362000378565b95508019841693508086168417925050509392505050565b6000819050919050565b60006200040662000400620003fa84620000af565b620003db565b620000af565b9050919050565b6000819050919050565b6200042283620003e5565b6200043a62000431826200040d565b84845462000385565b825550505050565b600090565b6200045162000442565b6200045e81848462000417565b505050565b5b8181101562000486576200047a60008262000447565b60018101905062000464565b5050565b601f821115620004d5576200049f8162000353565b620004aa8462000368565b81016020851015620004ba578190505b620004d2620004c98562000368565b83018262000463565b50505b505050565b600082821c905092915050565b6000620004fa60001984600802620004da565b1980831691505092915050565b6000620005158383620004e7565b9150826002028217905092915050565b6200053082620002e4565b67ffffffffffffffff8111156200054c576200054b62000105565b5b6200055882546200031e565b620005658282856200048a565b600060209050601f8311600181146200059d576000841562000588578287015190505b62000594858262000507565b86555062000604565b601f198416620005ad8662000353565b60005b82811015620005d757848901518255600182019150602085019450602081019050620005b0565b86831015620005f75784890151620005f3601f891682620004e7565b8355505b6001600288020188555050505b505050505050565b610350806200061c6000396000f3fe608060405234801561001057600080fd5b506004361061004c5760003560e01c80632688454a146100515780634be1c7961461006f578063a99dca3f1461008d578063d7260006146100ab575b600080fd5b6100596100c9565b60405161006691906101b9565b60405180910390f35b6100776100cf565b6040516100849190610264565b60405180910390f35b61009561015d565b6040516100a29190610264565b60405180910390f35b6100b361019a565b6040516100c0919061029f565b60405180910390f35b60015481565b600280546100dc906102e9565b80601f0160208091040260200160405190810160405280929190818152602001828054610108906102e9565b80156101555780601f1061012a57610100808354040283529160200191610155565b820191906000526020600020905b81548152906001019060200180831161013857829003601f168201915b505050505081565b60606040518060400160405280600f81526020017f48656c6c6f20457468657265756d210000000000000000000000000000000000815250905090565b60005481565b6000819050919050565b6101b3816101a0565b82525050565b60006020820190506101ce60008301846101aa565b92915050565b600081519050919050565b600082825260208201905092915050565b60005b8381101561020e5780820151818401526020810190506101f3565b60008484015250505050565b6000601f19601f8301169050919050565b6000610236826101d4565b61024081856101df565b93506102508185602086016101f0565b6102598161021a565b840191505092915050565b6000602082019050818103600083015261027e818461022b565b905092915050565b6000819050919050565b61029981610286565b82525050565b60006020820190506102b46000830184610290565b92915050565b7f4e487b7100000000000000000000000000000000000000000000000000000000600052602260045260246000fd5b6000600282049050600182168061030157607f821691505b602082108103610314576103136102ba565b5b5091905056fea264697066735822122050f64b3faba45fc4c1da76e3a09106c8246d64bae75df8faa025a1a298b2179364736f6c63430008110033",
			"opcodes": "PUSH1 0x80 PUSH1 0x40 MSTORE CALLVALUE DUP1 ISZERO PUSH3 0x11 JUMPI PUSH1 0x0 DUP1 REVERT JUMPDEST POP PUSH1 0x40 MLOAD PUSH3 0x96C CODESIZE SUB DUP1 PUSH3 0x96C DUP4 CODECOPY DUP2 DUP2 ADD PUSH1 0x40 MSTORE DUP2 ADD SWAP1 PUSH3 0x37 SWAP2 SWAP1 PUSH3 0x269 JUMP JUMPDEST DUP3 PUSH1 0x0 DUP2 SWAP1 SSTORE POP DUP2 PUSH1 0x1 DUP2 SWAP1 SSTORE POP DUP1 PUSH1 0x2 SWAP1 DUP2 PUSH3 0x56 SWAP2 SWAP1 PUSH3 0x525 JUMP JUMPDEST POP POP POP POP PUSH3 0x60C JUMP JUMPDEST PUSH1 0x0 PUSH1 0x40 MLOAD SWAP1 POP SWAP1 JUMP JUMPDEST PUSH1 0x0 DUP1 REVERT JUMPDEST PUSH1 0x0 DUP1 REVERT JUMPDEST PUSH1 0x0 DUP2 SWAP1 POP SWAP2 SWAP1 POP JUMP JUMPDEST PUSH3 0x89 DUP2 PUSH3 0x74 JUMP JUMPDEST DUP2 EQ PUSH3 0x95 JUMPI PUSH1 0x0 DUP1 REVERT JUMPDEST POP JUMP JUMPDEST PUSH1 0x0 DUP2 MLOAD SWAP1 POP PUSH3 0xA9 DUP2 PUSH3 0x7E JUMP JUMPDEST SWAP3 SWAP2 POP POP JUMP JUMPDEST PUSH1 0x0 DUP2 SWAP1 POP SWAP2 SWAP1 POP JUMP JUMPDEST PUSH3 0xC4 DUP2 PUSH3 0xAF JUMP JUMPDEST DUP2 EQ PUSH3 0xD0 JUMPI PUSH1 0x0 DUP1 REVERT JUMPDEST POP JUMP JUMPDEST PUSH1 0x0 DUP2 MLOAD SWAP1 POP PUSH3 0xE4 DUP2 PUSH3 0xB9 JUMP JUMPDEST SWAP3 SWAP2 POP POP JUMP JUMPDEST PUSH1 0x0 DUP1 REVERT JUMPDEST PUSH1 0x0 DUP1 REVERT JUMPDEST PUSH1 0x0 PUSH1 0x1F NOT PUSH1 0x1F DUP4 ADD AND SWAP1 POP SWAP2 SWAP1 POP JUMP JUMPDEST PUSH32 0x4E487B7100000000000000000000000000000000000000000000000000000000 PUSH1 0x0 MSTORE PUSH1 0x41 PUSH1 0x4 MSTORE PUSH1 0x24 PUSH1 0x0 REVERT JUMPDEST PUSH3 0x13F DUP3 PUSH3 0xF4 JUMP JUMPDEST DUP2 ADD DUP2 DUP2 LT PUSH8 0xFFFFFFFFFFFFFFFF DUP3 GT OR ISZERO PUSH3 0x161 JUMPI PUSH3 0x160 PUSH3 0x105 JUMP JUMPDEST JUMPDEST DUP1 PUSH1 0x40 MSTORE POP POP POP JUMP JUMPDEST PUSH1 0x0 PUSH3 0x176 PUSH3 0x60 JUMP JUMPDEST SWAP1 POP PUSH3 0x184 DUP3 DUP3 PUSH3 0x134 JUMP JUMPDEST SWAP2 SWAP1 POP JUMP JUMPDEST PUSH1 0x0 PUSH8 0xFFFFFFFFFFFFFFFF DUP3 GT ISZERO PUSH3 0x1A7 JUMPI PUSH3 0x1A6 PUSH3 0x105 JUMP JUMPDEST JUMPDEST PUSH3 0x1B2 DUP3 PUSH3 0xF4 JUMP JUMPDEST SWAP1 POP PUSH1 0x20 DUP2 ADD SWAP1 POP SWAP2 SWAP1 POP JUMP JUMPDEST PUSH1 0x0 JUMPDEST DUP4 DUP2 LT ISZERO PUSH3 0x1DF JUMPI DUP1 DUP3 ADD MLOAD DUP2 DUP5 ADD MSTORE PUSH1 0x20 DUP2 ADD SWAP1 POP PUSH3 0x1C2 JUMP JUMPDEST PUSH1 0x0 DUP5 DUP5 ADD MSTORE POP POP POP POP JUMP JUMPDEST PUSH1 0x0 PUSH3 0x202 PUSH3 0x1FC DUP5 PUSH3 0x189 JUMP JUMPDEST PUSH3 0x16A JUMP JUMPDEST SWAP1 POP DUP3 DUP2 MSTORE PUSH1 0x20 DUP2 ADD DUP5 DUP5 DUP5 ADD GT ISZERO PUSH3 0x221 JUMPI PUSH3 0x220 PUSH3 0xEF JUMP JUMPDEST JUMPDEST PUSH3 0x22E DUP5 DUP3 DUP6 PUSH3 0x1BF JUMP JUMPDEST POP SWAP4 SWAP3 POP POP POP JUMP JUMPDEST PUSH1 0x0 DUP3 PUSH1 0x1F DUP4 ADD SLT PUSH3 0x24E JUMPI PUSH3 0x24D PUSH3 0xEA JUMP JUMPDEST JUMPDEST DUP2 MLOAD PUSH3 0x260 DUP5 DUP3 PUSH1 0x20 DUP7 ADD PUSH3 0x1EB JUMP JUMPDEST SWAP2 POP POP SWAP3 SWAP2 POP POP JUMP JUMPDEST PUSH1 0x0 DUP1 PUSH1 0x0 PUSH1 0x60 DUP5 DUP7 SUB SLT ISZERO PUSH3 0x285 JUMPI PUSH3 0x284 PUSH3 0x6A JUMP JUMPDEST JUMPDEST PUSH1 0x0 PUSH3 0x295 DUP7 DUP3 DUP8 ADD PUSH3 0x98 JUMP JUMPDEST SWAP4 POP POP PUSH1 0x20 PUSH3 0x2A8 DUP7 DUP3 DUP8 ADD PUSH3 0xD3 JUMP JUMPDEST SWAP3 POP POP PUSH1 0x40 DUP5 ADD MLOAD PUSH8 0xFFFFFFFFFFFFFFFF DUP2 GT ISZERO PUSH3 0x2CC JUMPI PUSH3 0x2CB PUSH3 0x6F JUMP JUMPDEST JUMPDEST PUSH3 0x2DA DUP7 DUP3 DUP8 ADD PUSH3 0x236 JUMP JUMPDEST SWAP2 POP POP SWAP3 POP SWAP3 POP SWAP3 JUMP JUMPDEST PUSH1 0x0 DUP2 MLOAD SWAP1 POP SWAP2 SWAP1 POP JUMP JUMPDEST PUSH32 0x4E487B7100000000000000000000000000000000000000000000000000000000 PUSH1 0x0 MSTORE PUSH1 0x22 PUSH1 0x4 MSTORE PUSH1 0x24 PUSH1 0x0 REVERT JUMPDEST PUSH1 0x0 PUSH1 0x2 DUP3 DIV SWAP1 POP PUSH1 0x1 DUP3 AND DUP1 PUSH3 0x337 JUMPI PUSH1 0x7F DUP3 AND SWAP2 POP JUMPDEST PUSH1 0x20 DUP3 LT DUP2 SUB PUSH3 0x34D JUMPI PUSH3 0x34C PUSH3 0x2EF JUMP JUMPDEST JUMPDEST POP SWAP2 SWAP1 POP JUMP JUMPDEST PUSH1 0x0 DUP2 SWAP1 POP DUP2 PUSH1 0x0 MSTORE PUSH1 0x20 PUSH1 0x0 KECCAK256 SWAP1 POP SWAP2 SWAP1 POP JUMP JUMPDEST PUSH1 0x0 PUSH1 0x20 PUSH1 0x1F DUP4 ADD DIV SWAP1 POP SWAP2 SWAP1 POP JUMP JUMPDEST PUSH1 0x0 DUP3 DUP3 SHL SWAP1 POP SWAP3 SWAP2 POP POP JUMP JUMPDEST PUSH1 0x0 PUSH1 0x8 DUP4 MUL PUSH3 0x3B7 PUSH32 0xFFFFFFFFFFFFFFFFFFFFFFFFFFFFFFFFFFFFFFFFFFFFFFFFFFFFFFFFFFFFFFFF DUP3 PUSH3 0x378 JUMP JUMPDEST PUSH3 0x3C3 DUP7 DUP4 PUSH3 0x378 JUMP JUMPDEST SWAP6 POP DUP1 NOT DUP5 AND SWAP4 POP DUP1 DUP7 AND DUP5 OR SWAP3 POP POP POP SWAP4 SWAP3 POP POP POP JUMP JUMPDEST PUSH1 0x0 DUP2 SWAP1 POP SWAP2 SWAP1 POP JUMP JUMPDEST PUSH1 0x0 PUSH3 0x406 PUSH3 0x400 PUSH3 0x3FA DUP5 PUSH3 0xAF JUMP JUMPDEST PUSH3 0x3DB JUMP JUMPDEST PUSH3 0xAF JUMP JUMPDEST SWAP1 POP SWAP2 SWAP1 POP JUMP JUMPDEST PUSH1 0x0 DUP2 SWAP1 POP SWAP2 SWAP1 POP JUMP JUMPDEST PUSH3 0x422 DUP4 PUSH3 0x3E5 JUMP JUMPDEST PUSH3 0x43A PUSH3 0x431 DUP3 PUSH3 0x40D JUMP JUMPDEST DUP5 DUP5 SLOAD PUSH3 0x385 JUMP JUMPDEST DUP3 SSTORE POP POP POP POP JUMP JUMPDEST PUSH1 0x0 SWAP1 JUMP JUMPDEST PUSH3 0x451 PUSH3 0x442 JUMP JUMPDEST PUSH3 0x45E DUP2 DUP5 DUP5 PUSH3 0x417 JUMP JUMPDEST POP POP POP JUMP JUMPDEST JUMPDEST DUP2 DUP2 LT ISZERO PUSH3 0x486 JUMPI PUSH3 0x47A PUSH1 0x0 DUP3 PUSH3 0x447 JUMP JUMPDEST PUSH1 0x1 DUP2 ADD SWAP1 POP PUSH3 0x464 JUMP JUMPDEST POP POP JUMP JUMPDEST PUSH1 0x1F DUP3 GT ISZERO PUSH3 0x4D5 JUMPI PUSH3 0x49F DUP2 PUSH3 0x353 JUMP JUMPDEST PUSH3 0x4AA DUP5 PUSH3 0x368 JUMP JUMPDEST DUP2 ADD PUSH1 0x20 DUP6 LT ISZERO PUSH3 0x4BA JUMPI DUP2 SWAP1 POP JUMPDEST PUSH3 0x4D2 PUSH3 0x4C9 DUP6 PUSH3 0x368 JUMP JUMPDEST DUP4 ADD DUP3 PUSH3 0x463 JUMP JUMPDEST POP POP JUMPDEST POP POP POP JUMP JUMPDEST PUSH1 0x0 DUP3 DUP3 SHR SWAP1 POP SWAP3 SWAP2 POP POP JUMP JUMPDEST PUSH1 0x0 PUSH3 0x4FA PUSH1 0x0 NOT DUP5 PUSH1 0x8 MUL PUSH3 0x4DA JUMP JUMPDEST NOT DUP1 DUP4 AND SWAP2 POP POP SWAP3 SWAP2 POP POP JUMP JUMPDEST PUSH1 0x0 PUSH3 0x515 DUP4 DUP4 PUSH3 0x4E7 JUMP JUMPDEST SWAP2 POP DUP3 PUSH1 0x2 MUL DUP3 OR SWAP1 POP SWAP3 SWAP2 POP POP JUMP JUMPDEST PUSH3 0x530 DUP3 PUSH3 0x2E4 JUMP JUMPDEST PUSH8 0xFFFFFFFFFFFFFFFF DUP2 GT ISZERO PUSH3 0x54C JUMPI PUSH3 0x54B PUSH3 0x105 JUMP JUMPDEST JUMPDEST PUSH3 0x558 DUP3 SLOAD PUSH3 0x31E JUMP JUMPDEST PUSH3 0x565 DUP3 DUP3 DUP6 PUSH3 0x48A JUMP JUMPDEST PUSH1 0x0 PUSH1 0x20 SWAP1 POP PUSH1 0x1F DUP4 GT PUSH1 0x1 DUP2 EQ PUSH3 0x59D JUMPI PUSH1 0x0 DUP5 ISZERO PUSH3 0x588 JUMPI DUP3 DUP8 ADD MLOAD SWAP1 POP JUMPDEST PUSH3 0x594 DUP6 DUP3 PUSH3 0x507 JUMP JUMPDEST DUP7 SSTORE POP PUSH3 0x604 JUMP JUMPDEST PUSH1 0x1F NOT DUP5 AND PUSH3 0x5AD DUP7 PUSH3 0x353 JUMP JUMPDEST PUSH1 0x0 JUMPDEST DUP3 DUP2 LT ISZERO PUSH3 0x5D7 JUMPI DUP5 DUP10 ADD MLOAD DUP3 SSTORE PUSH1 0x1 DUP3 ADD SWAP2 POP PUSH1 0x20 DUP6 ADD SWAP5 POP PUSH1 0x20 DUP2 ADD SWAP1 POP PUSH3 0x5B0 JUMP JUMPDEST DUP7 DUP4 LT ISZERO PUSH3 0x5F7 JUMPI DUP5 DUP10 ADD MLOAD PUSH3 0x5F3 PUSH1 0x1F DUP10 AND DUP3 PUSH3 0x4E7 JUMP JUMPDEST DUP4 SSTORE POP JUMPDEST PUSH1 0x1 PUSH1 0x2 DUP9 MUL ADD DUP9 SSTORE POP POP POP JUMPDEST POP POP POP POP POP POP JUMP JUMPDEST PUSH2 0x350 DUP1 PUSH3 0x61C PUSH1 0x0 CODECOPY PUSH1 0x0 RETURN INVALID PUSH1 0x80 PUSH1 0x40 MSTORE CALLVALUE DUP1 ISZERO PUSH2 0x10 JUMPI PUSH1 0x0 DUP1 REVERT JUMPDEST POP PUSH1 0x4 CALLDATASIZE LT PUSH2 0x4C JUMPI PUSH1 0x0 CALLDATALOAD PUSH1 0xE0 SHR DUP1 PUSH4 0x2688454A EQ PUSH2 0x51 JUMPI DUP1 PUSH4 0x4BE1C796 EQ PUSH2 0x6F JUMPI DUP1 PUSH4 0xA99DCA3F EQ PUSH2 0x8D JUMPI DUP1 PUSH4 0xD7260006 EQ PUSH2 0xAB JUMPI JUMPDEST PUSH1 0x0 DUP1 REVERT JUMPDEST PUSH2 0x59 PUSH2 0xC9 JUMP JUMPDEST PUSH1 0x40 MLOAD PUSH2 0x66 SWAP2 SWAP1 PUSH2 0x1B9 JUMP JUMPDEST PUSH1 0x40 MLOAD DUP1 SWAP2 SUB SWAP1 RETURN JUMPDEST PUSH2 0x77 PUSH2 0xCF JUMP JUMPDEST PUSH1 0x40 MLOAD PUSH2 0x84 SWAP2 SWAP1 PUSH2 0x264 JUMP JUMPDEST PUSH1 0x40 MLOAD DUP1 SWAP2 SUB SWAP1 RETURN JUMPDEST PUSH2 0x95 PUSH2 0x15D JUMP JUMPDEST PUSH1 0x40 MLOAD PUSH2 0xA2 SWAP2 SWAP1 PUSH2 0x264 JUMP JUMPDEST PUSH1 0x40 MLOAD DUP1 SWAP2 SUB SWAP1 RETURN JUMPDEST PUSH2 0xB3 PUSH2 0x19A JUMP JUMPDEST PUSH1 0x40 MLOAD PUSH2 0xC0 SWAP2 SWAP1 PUSH2 0x29F JUMP JUMPDEST PUSH1 0x40 MLOAD DUP1 SWAP2 SUB SWAP1 RETURN JUMPDEST PUSH1 0x1 SLOAD DUP2 JUMP JUMPDEST PUSH1 0x2 DUP1 SLOAD PUSH2 0xDC SWAP1 PUSH2 0x2E9 JUMP JUMPDEST DUP1 PUSH1 0x1F ADD PUSH1 0x20 DUP1 SWAP2 DIV MUL PUSH1 0x20 ADD PUSH1 0x40 MLOAD SWAP1 DUP2 ADD PUSH1 0x40 MSTORE DUP1 SWAP3 SWAP2 SWAP1 DUP2 DUP2 MSTORE PUSH1 0x20 ADD DUP3 DUP1 SLOAD PUSH2 0x108 SWAP1 PUSH2 0x2E9 JUMP JUMPDEST DUP1 ISZERO PUSH2 0x155 JUMPI DUP1 PUSH1 0x1F LT PUSH2 0x12A JUMPI PUSH2 0x100 DUP1 DUP4 SLOAD DIV MUL DUP4 MSTORE SWAP2 PUSH1 0x20 ADD SWAP2 PUSH2 0x155 JUMP JUMPDEST DUP3 ADD SWAP2 SWAP1 PUSH1 0x0 MSTORE PUSH1 0x20 PUSH1 0x0 KECCAK256 SWAP1 JUMPDEST DUP2 SLOAD DUP2 MSTORE SWAP1 PUSH1 0x1 ADD SWAP1 PUSH1 0x20 ADD DUP1 DUP4 GT PUSH2 0x138 JUMPI DUP3 SWAP1 SUB PUSH1 0x1F AND DUP3 ADD SWAP2 JUMPDEST POP POP POP POP POP DUP2 JUMP JUMPDEST PUSH1 0x60 PUSH1 0x40 MLOAD DUP1 PUSH1 0x40 ADD PUSH1 0x40 MSTORE DUP1 PUSH1 0xF DUP2 MSTORE PUSH1 0x20 ADD PUSH32 0x48656C6C6F20457468657265756D210000000000000000000000000000000000 DUP2 MSTORE POP SWAP1 POP SWAP1 JUMP JUMPDEST PUSH1 0x0 SLOAD DUP2 JUMP JUMPDEST PUSH1 0x0 DUP2 SWAP1 POP SWAP2 SWAP1 POP JUMP JUMPDEST PUSH2 0x1B3 DUP2 PUSH2 0x1A0 JUMP JUMPDEST DUP3 MSTORE POP POP JUMP JUMPDEST PUSH1 0x0 PUSH1 0x20 DUP3 ADD SWAP1 POP PUSH2 0x1CE PUSH1 0x0 DUP4 ADD DUP5 PUSH2 0x1AA JUMP JUMPDEST SWAP3 SWAP2 POP POP JUMP JUMPDEST PUSH1 0x0 DUP2 MLOAD SWAP1 POP SWAP2 SWAP1 POP JUMP JUMPDEST PUSH1 0x0 DUP3 DUP3 MSTORE PUSH1 0x20 DUP3 ADD SWAP1 POP SWAP3 SWAP2 POP POP JUMP JUMPDEST PUSH1 0x0 JUMPDEST DUP4 DUP2 LT ISZERO PUSH2 0x20E JUMPI DUP1 DUP3 ADD MLOAD DUP2 DUP5 ADD MSTORE PUSH1 0x20 DUP2 ADD SWAP1 POP PUSH2 0x1F3 JUMP JUMPDEST PUSH1 0x0 DUP5 DUP5 ADD MSTORE POP POP POP POP JUMP JUMPDEST PUSH1 0x0 PUSH1 0x1F NOT PUSH1 0x1F DUP4 ADD AND SWAP1 POP SWAP2 SWAP1 POP JUMP JUMPDEST PUSH1 0x0 PUSH2 0x236 DUP3 PUSH2 0x1D4 JUMP JUMPDEST PUSH2 0x240 DUP2 DUP6 PUSH2 0x1DF JUMP JUMPDEST SWAP4 POP PUSH2 0x250 DUP2 DUP6 PUSH1 0x20 DUP7 ADD PUSH2 0x1F0 JUMP JUMPDEST PUSH2 0x259 DUP2 PUSH2 0x21A JUMP JUMPDEST DUP5 ADD SWAP2 POP POP SWAP3 SWAP2 POP POP JUMP JUMPDEST PUSH1 0x0 PUSH1 0x20 DUP3 ADD SWAP1 POP DUP2 DUP2 SUB PUSH1 0x0 DUP4 ADD MSTORE PUSH2 0x27E DUP2 DUP5 PUSH2 0x22B JUMP JUMPDEST SWAP1 POP SWAP3 SWAP2 POP POP JUMP JUMPDEST PUSH1 0x0 DUP2 SWAP1 POP SWAP2 SWAP1 POP JUMP JUMPDEST PUSH2 0x299 DUP2 PUSH2 0x286 JUMP JUMPDEST DUP3 MSTORE POP POP JUMP JUMPDEST PUSH1 0x0 PUSH1 0x20 DUP3 ADD SWAP1 POP PUSH2 0x2B4 PUSH1 0x0 DUP4 ADD DUP5 PUSH2 0x290 JUMP JUMPDEST SWAP3 SWAP2 POP POP JUMP JUMPDEST PUSH32 0x4E487B7100000000000000000000000000000000000000000000000000000000 PUSH1 0x0 MSTORE PUSH1 0x22 PUSH1 0x4 MSTORE PUSH1 0x24 PUSH1 0x0 REVERT JUMPDEST PUSH1 0x0 PUSH1 0x2 DUP3 DIV SWAP1 POP PUSH1 0x1 DUP3 AND DUP1 PUSH2 0x301 JUMPI PUSH1 0x7F DUP3 AND SWAP2 POP JUMPDEST PUSH1 0x20 DUP3 LT DUP2 SUB PUSH2 0x314 JUMPI PUSH2 0x313 PUSH2 0x2BA JUMP JUMPDEST JUMPDEST POP SWAP2 SWAP1 POP JUMP INVALID LOG2 PUSH5 0x6970667358 0x22 SLT KECCAK256 POP 0xF6 0x4B EXTCODEHASH 0xAB LOG4 0x5F 0xC4 0xC1 0xDA PUSH23 0xE3A09106C8246D64BAE75DF8FAA025A1A298B217936473 PUSH16 0x6C634300081100330000000000000000 "
		},
		"gasEstimates": {
			"creation": {
				"codeDepositCost": "169600",
				"executionCost": "infinite",
				"totalCost": "infinite"
			},
			"external": {
				"I()": "2473",
				"S()": "infinite",
				"U()": "2407",
				"hi()": "infinite"
			}
		},
		"methodIdentifiers": {
			"I()": "d7260006",
			"S()": "4be1c796",
			"U()": "2688454a",
			"hi()": "a99dca3f"
		}
	},
	"abi": [
		{
			"inputs": [
				{
					"internalType": "int256",
					"name": "_I",
					"type": "int256"
				},
				{
					"internalType": "uint256",
					"name": "_U",
					"type": "uint256"
				},
				{
					"internalType": "string",
					"name": "_S",
					"type": "string"
				}
			],
			"stateMutability": "nonpayable",
			"type": "constructor"
		},
		{
			"inputs": [],
			"name": "I",
			"outputs": [
				{
					"internalType": "int256",
					"name": "",
					"type": "int256"
				}
			],
			"stateMutability": "view",
			"type": "function"
		},
		{
			"inputs": [],
			"name": "S",
			"outputs": [
				{
					"internalType": "string",
					"name": "",
					"type": "string"
				}
			],
			"stateMutability": "view",
			"type": "function"
		},
		{
			"inputs": [],
			"name": "U",
			"outputs": [
				{
					"internalType": "uint256",
					"name": "",
					"type": "uint256"
				}
			],
			"stateMutability": "view",
			"type": "function"
		},
		{
			"inputs": [],
			"name": "hi",
			"outputs": [
				{
					"internalType": "string",
					"name": "",
					"type": "string"
				}
			],
			"stateMutability": "pure",
			"type": "function"
		}
	]
}